{
  "address": "0xf5c4a909455C00B99A90d93b48736F3196DB5621",
  "abi": [
    {
      "inputs": [
        {
          "internalType": "address",
          "name": "ultraVerifierAddress",
          "type": "address"
        }
      ],
      "stateMutability": "nonpayable",
      "type": "constructor"
    },
    {
      "anonymous": false,
      "inputs": [
        {
          "indexed": true,
          "internalType": "address",
          "name": "valueSetter",
          "type": "address"
        },
        {
          "indexed": false,
          "internalType": "bytes32",
          "name": "newValue",
          "type": "bytes32"
        }
      ],
      "name": "SecureValueChange",
      "type": "event"
    },
    {
      "inputs": [],
      "name": "secureValue",
      "outputs": [
        {
          "internalType": "bytes32",
          "name": "",
          "type": "bytes32"
        }
      ],
      "stateMutability": "view",
      "type": "function"
    },
    {
      "inputs": [
        {
          "internalType": "bytes32",
          "name": "_newSecureValue",
          "type": "bytes32"
        },
        {
          "internalType": "bytes",
          "name": "_proof",
          "type": "bytes"
        },
        {
          "internalType": "bytes32[]",
          "name": "_publicInputs",
          "type": "bytes32[]"
        }
      ],
      "name": "setSecureValue",
      "outputs": [
        {
          "internalType": "bool",
          "name": "",
          "type": "bool"
        }
      ],
      "stateMutability": "nonpayable",
      "type": "function"
    }
  ],
  "transactionHash": "0xa070f9290b4c5a99a6f15f047bd5cbea3215ea756794f8b9605886df9f09c0cc",
  "args": [
    "0xdF46e54aAadC1d55198A4a8b4674D7a4c927097A"
  ],
  "numDeployments": 1,
  "solcInputHash": "143e91ebb0c9c8101b19eec18f389ff7",
  "bytecode": "0x60806040526b53757065722053656375726560a01b60005534801561002357600080fd5b506040516103c63803806103c683398101604081905261004291610067565b600180546001600160a01b0319166001600160a01b0392909216919091179055610097565b60006020828403121561007957600080fd5b81516001600160a01b038116811461009057600080fd5b9392505050565b610320806100a66000396000f3fe608060405234801561001057600080fd5b50600436106100365760003560e01c80635ad6797f1461003b57806365012ee714610063575b600080fd5b61004e610049366004610188565b61007a565b60405190151581526020015b60405180910390f35b61006c60005481565b60405190815260200161005a565b600154604051633a94343960e21b81526000916001600160a01b03169063ea50d0e4906100b190889088908890889060040161025d565b602060405180830381865afa1580156100ce573d6000803e3d6000fd5b505050506040513d601f19601f820116820180604052508101906100f291906102c1565b6101425760405162461bcd60e51b815260206004820152601a60248201527f50726f6f6620766572696669636174696f6e206661696c65642e000000000000604482015260640160405180910390fd5b600086905560405186815233907f8a17f696ceda579d95fca0903af0dec06953e1f46e9594765598e2681660c70a9060200160405180910390a250600195945050505050565b6000806000806000606086880312156101a057600080fd5b85359450602086013567ffffffffffffffff808211156101bf57600080fd5b818801915088601f8301126101d357600080fd5b8135818111156101e257600080fd5b8960208285010111156101f457600080fd5b60208301965080955050604088013591508082111561021257600080fd5b818801915088601f83011261022657600080fd5b81358181111561023557600080fd5b8960208260051b850101111561024a57600080fd5b9699959850939650602001949392505050565b6040815283604082015283856060830137600060608583018101829052601f19601f8701168301838103820160208501529081018490526001600160fb1b038411156102a857600080fd5b8360051b80866080840137016080019695505050505050565b6000602082840312156102d357600080fd5b815180151581146102e357600080fd5b939250505056fea26469706673582212204c44259ff20ea48bcbd32a74c22db4cc46342051cc968c1510d1c1f9dce1aaf264736f6c63430008110033",
  "devdoc": {
    "author": "BuidlGuidl",
    "kind": "dev",
    "methods": {
      "setSecureValue(bytes32,bytes,bytes32[])": {
        "params": {
          "_newSecureValue": "(bytes32 memory) - new secureValue to save on the contract",
          "_proof": "(bytes calldata) - noir proof",
          "_publicInputs": "(bytes32[] calldata) - noir public inputs"
        }
      }
    },
    "version": 1
  },
  "userdoc": {
    "kind": "user",
    "methods": {
      "setSecureValue(bytes32,bytes,bytes32[])": {
        "notice": "Function that allows anyone to change the state variable \"secureValue\" of the contract if they have a proof on knowing 2 non-identical numbers"
      }
    },
    "notice": "A smart contract that allows changing a state variable of the contract and tracking the changes It also allows the owner to withdraw the Ether in the contract",
    "version": 1
  },
  "storageLayout": {
    "storage": [
      {
        "astId": 17,
        "contract": "contracts/ProofGatedValueSetter.sol:ProofGatedValueSetter",
        "label": "secureValue",
        "offset": 0,
        "slot": "0",
        "type": "t_bytes32"
      },
      {
        "astId": 20,
        "contract": "contracts/ProofGatedValueSetter.sol:ProofGatedValueSetter",
        "label": "ultraVerifier",
        "offset": 0,
        "slot": "1",
        "type": "t_contract(IUltraVerifier)13"
      }
    ],
    "types": {
      "t_bytes32": {
        "encoding": "inplace",
        "label": "bytes32",
        "numberOfBytes": "32"
      },
      "t_contract(IUltraVerifier)13": {
        "encoding": "inplace",
        "label": "contract IUltraVerifier",
        "numberOfBytes": "20"
      }
    }
  }
}